{
  "contractName": "SimpleIdentity",
  "abi": [
    {
      "constant": true,
      "inputs": [],
      "name": "numIdentities",
      "outputs": [
        {
          "name": "",
          "type": "uint256"
        }
      ],
      "payable": false,
      "stateMutability": "view",
      "type": "function"
    },
    {
      "constant": true,
      "inputs": [],
      "name": "contractOwner",
      "outputs": [
        {
          "name": "",
          "type": "address"
        }
      ],
      "payable": false,
      "stateMutability": "view",
      "type": "function"
    },
    {
      "inputs": [],
      "payable": false,
      "stateMutability": "nonpayable",
      "type": "constructor"
    },
    {
      "anonymous": false,
      "inputs": [
        {
          "indexed": false,
          "name": "_name",
          "type": "string"
        },
        {
          "indexed": false,
          "name": "_age",
          "type": "uint256"
        },
        {
          "indexed": false,
          "name": "numIdentities",
          "type": "uint256"
        }
      ],
      "name": "LogNewIdentity",
      "type": "event"
    },
    {
      "anonymous": false,
      "inputs": [
        {
          "indexed": false,
          "name": "_deletedName",
          "type": "string"
        },
        {
          "indexed": false,
          "name": "_deletedAge",
          "type": "uint256"
        },
        {
          "indexed": false,
          "name": "numIdentities",
          "type": "uint256"
        }
      ],
      "name": "LogDeletedIdentity",
      "type": "event"
    },
    {
      "anonymous": false,
      "inputs": [
        {
          "indexed": false,
          "name": "_updatedName",
          "type": "string"
        },
        {
          "indexed": false,
          "name": "_age",
          "type": "uint256"
        },
        {
          "indexed": false,
          "name": "numIdentities",
          "type": "uint256"
        }
      ],
      "name": "LogUpdatedIdentityName",
      "type": "event"
    },
    {
      "anonymous": false,
      "inputs": [
        {
          "indexed": false,
          "name": "_name",
          "type": "string"
        },
        {
          "indexed": false,
          "name": "_updatedAge",
          "type": "uint256"
        },
        {
          "indexed": false,
          "name": "numIdentities",
          "type": "uint256"
        }
      ],
      "name": "LogUpdatedIdentityAge",
      "type": "event"
    },
    {
      "constant": false,
      "inputs": [
        {
          "name": "_name",
          "type": "string"
        },
        {
          "name": "_age",
          "type": "uint256"
        }
      ],
      "name": "addIdentity",
      "outputs": [
        {
          "name": "",
          "type": "uint256"
        }
      ],
      "payable": false,
      "stateMutability": "nonpayable",
      "type": "function"
    },
    {
      "constant": false,
      "inputs": [],
      "name": "removeIdentity",
      "outputs": [
        {
          "name": "",
          "type": "uint256"
        }
      ],
      "payable": false,
      "stateMutability": "nonpayable",
      "type": "function"
    },
    {
      "constant": false,
      "inputs": [
        {
          "name": "_name",
          "type": "string"
        }
      ],
      "name": "updateName",
      "outputs": [
        {
          "name": "",
          "type": "string"
        },
        {
          "name": "",
          "type": "uint256"
        }
      ],
      "payable": false,
      "stateMutability": "nonpayable",
      "type": "function"
    },
    {
      "constant": false,
      "inputs": [
        {
          "name": "_age",
          "type": "uint256"
        }
      ],
      "name": "updateAge",
      "outputs": [
        {
          "name": "",
          "type": "string"
        },
        {
          "name": "",
          "type": "uint256"
        }
      ],
      "payable": false,
      "stateMutability": "nonpayable",
      "type": "function"
    },
    {
      "constant": true,
      "inputs": [],
      "name": "getIdentity",
      "outputs": [
        {
          "name": "",
          "type": "string"
        },
        {
          "name": "",
          "type": "uint256"
        }
      ],
      "payable": false,
      "stateMutability": "view",
      "type": "function"
    }
  ],
  "bytecode": "0x608060405234801561001057600080fd5b5033600260006101000a81548173ffffffffffffffffffffffffffffffffffffffff021916908373ffffffffffffffffffffffffffffffffffffffff1602179055506000600181905550611257806100696000396000f300608060405260043610610083576000357c0100000000000000000000000000000000000000000000000000000000900463ffffffff16806319bb8b2b1461008857806336afc6fa146100b3578063406da1eb1461014a5780637d625c07146101d157806384da92a71461027e578063c37c596f14610367578063ce606ee014610392575b600080fd5b34801561009457600080fd5b5061009d6103e9565b6040518082815260200191505060405180910390f35b3480156100bf57600080fd5b506100c86103ef565b6040518080602001838152602001828103825284818151815260200191508051906020019080838360005b8381101561010e5780820151818401526020810190506100f3565b50505050905090810190601f16801561013b5780820380516001836020036101000a031916815260200191505b50935050505060405180910390f35b34801561015657600080fd5b506101bb600480360381019080803590602001908201803590602001908080601f0160208091040260200160405190810160405280939291908181526020018383808284378201915050505050509192919290803590602001909291905050506105cc565b6040518082815260200191505060405180910390f35b3480156101dd57600080fd5b506101fc600480360381019080803590602001909291905050506107d5565b6040518080602001838152602001828103825284818151815260200191508051906020019080838360005b83811015610242578082015181840152602081019050610227565b50505050905090810190601f16801561026f5780820380516001836020036101000a031916815260200191505b50935050505060405180910390f35b34801561028a57600080fd5b506102e5600480360381019080803590602001908201803590602001908080601f0160208091040260200160405190810160405280939291908181526020018383808284378201915050505050509192919290505050610b04565b6040518080602001838152602001828103825284818151815260200191508051906020019080838360005b8381101561032b578082015181840152602081019050610310565b50505050905090810190601f1680156103585780820380516001836020036101000a031916815260200191505b50935050505060405180910390f35b34801561037357600080fd5b5061037c610e27565b6040518082815260200191505060405180910390f35b34801561039e57600080fd5b506103a7611098565b604051808273ffffffffffffffffffffffffffffffffffffffff1673ffffffffffffffffffffffffffffffffffffffff16815260200191505060405180910390f35b60015481565b60606000806000803373ffffffffffffffffffffffffffffffffffffffff1673ffffffffffffffffffffffffffffffffffffffff1681526020019081526020016000206000018054600181600116156101000203166002900490501415801561049a575060008060003373ffffffffffffffffffffffffffffffffffffffff1673ffffffffffffffffffffffffffffffffffffffff1681526020019081526020016000206001015414155b15156104a557600080fd5b6000803373ffffffffffffffffffffffffffffffffffffffff1673ffffffffffffffffffffffffffffffffffffffff1681526020019081526020016000206000016000803373ffffffffffffffffffffffffffffffffffffffff1673ffffffffffffffffffffffffffffffffffffffff16815260200190815260200160002060010154818054600181600116156101000203166002900480601f0160208091040260200160405190810160405280929190818152602001828054600181600116156101000203166002900480156105bd5780601f10610592576101008083540402835291602001916105bd565b820191906000526020600020905b8154815290600101906020018083116105a057829003601f168201915b50505050509150915091509091565b6000806000803373ffffffffffffffffffffffffffffffffffffffff1673ffffffffffffffffffffffffffffffffffffffff168152602001908152602001600020600001805460018160011615610100020316600290049050148015610673575060008060003373ffffffffffffffffffffffffffffffffffffffff1673ffffffffffffffffffffffffffffffffffffffff16815260200190815260200160002060010154145b151561067e57600080fd5b8160008111151561068e57600080fd5b600180600082825401925050819055507f810d54edbd178a479c141f9d6e51395041883dd21fa9101e1e24b964ad16e6d284846001546040518080602001848152602001838152602001828103825285818151815260200191508051906020019080838360005b838110156107105780820151818401526020810190506106f5565b50505050905090810190601f16801561073d5780820380516001836020036101000a031916815260200191505b5094505050505060405180910390a16040805190810160405280858152602001848152506000803373ffffffffffffffffffffffffffffffffffffffff1673ffffffffffffffffffffffffffffffffffffffff16815260200190815260200160002060008201518160000190805190602001906107bb9291906110be565b506020820151816001015590505060015491505092915050565b60606000806000803373ffffffffffffffffffffffffffffffffffffffff1673ffffffffffffffffffffffffffffffffffffffff16815260200190815260200160002060000180546001816001161561010002031660029004905014158015610880575060008060003373ffffffffffffffffffffffffffffffffffffffff1673ffffffffffffffffffffffffffffffffffffffff1681526020019081526020016000206001015414155b151561088b57600080fd5b7f74f9f696d221a19ae248122bb77838a395e2dcf48286c9a11552a40b910d1ed06000803373ffffffffffffffffffffffffffffffffffffffff1673ffffffffffffffffffffffffffffffffffffffff1681526020019081526020016000206000018460015460405180806020018481526020018381526020018281038252858181546001816001161561010002031660029004815260200191508054600181600116156101000203166002900480156109865780601f1061095b57610100808354040283529160200191610986565b820191906000526020600020905b81548152906001019060200180831161096957829003601f168201915b505094505050505060405180910390a1826000803373ffffffffffffffffffffffffffffffffffffffff1673ffffffffffffffffffffffffffffffffffffffff168152602001908152602001600020600101819055506000803373ffffffffffffffffffffffffffffffffffffffff1673ffffffffffffffffffffffffffffffffffffffff1681526020019081526020016000206000016000803373ffffffffffffffffffffffffffffffffffffffff1673ffffffffffffffffffffffffffffffffffffffff16815260200190815260200160002060010154818054600181600116156101000203166002900480601f016020809104026020016040519081016040528092919081815260200182805460018160011615610100020316600290048015610af45780601f10610ac957610100808354040283529160200191610af4565b820191906000526020600020905b815481529060010190602001808311610ad757829003601f168201915b5050505050915091509150915091565b60606000806000803373ffffffffffffffffffffffffffffffffffffffff1673ffffffffffffffffffffffffffffffffffffffff16815260200190815260200160002060000180546001816001161561010002031660029004905014158015610baf575060008060003373ffffffffffffffffffffffffffffffffffffffff1673ffffffffffffffffffffffffffffffffffffffff1681526020019081526020016000206001015414155b1515610bba57600080fd5b7fda88fef51aeae8bf05a4ee87fd4f1088224fe1ea97b71d1900224c536a21335e836000803373ffffffffffffffffffffffffffffffffffffffff1673ffffffffffffffffffffffffffffffffffffffff168152602001908152602001600020600101546001546040518080602001848152602001838152602001828103825285818151815260200191508051906020019080838360005b83811015610c6d578082015181840152602081019050610c52565b50505050905090810190601f168015610c9a5780820380516001836020036101000a031916815260200191505b5094505050505060405180910390a1826000803373ffffffffffffffffffffffffffffffffffffffff1673ffffffffffffffffffffffffffffffffffffffff1681526020019081526020016000206000019080519060200190610cfe92919061113e565b506000803373ffffffffffffffffffffffffffffffffffffffff1673ffffffffffffffffffffffffffffffffffffffff1681526020019081526020016000206000016000803373ffffffffffffffffffffffffffffffffffffffff1673ffffffffffffffffffffffffffffffffffffffff16815260200190815260200160002060010154818054600181600116156101000203166002900480601f016020809104026020016040519081016040528092919081815260200182805460018160011615610100020316600290048015610e175780601f10610dec57610100808354040283529160200191610e17565b820191906000526020600020905b815481529060010190602001808311610dfa57829003601f168201915b5050505050915091509150915091565b6000806000803373ffffffffffffffffffffffffffffffffffffffff1673ffffffffffffffffffffffffffffffffffffffff16815260200190815260200160002060000180546001816001161561010002031660029004905014158015610ed0575060008060003373ffffffffffffffffffffffffffffffffffffffff1673ffffffffffffffffffffffffffffffffffffffff1681526020019081526020016000206001015414155b1515610edb57600080fd5b600180600082825403925050819055507f8b405e5dd179f57571e6aab3e18ef30f575e4ad88d53fdf193fe3193a54f71636000803373ffffffffffffffffffffffffffffffffffffffff1673ffffffffffffffffffffffffffffffffffffffff1681526020019081526020016000206000016000803373ffffffffffffffffffffffffffffffffffffffff1673ffffffffffffffffffffffffffffffffffffffff1681526020019081526020016000206001015460015460405180806020018481526020018381526020018281038252858181546001816001161561010002031660029004815260200191508054600181600116156101000203166002900480156110275780601f10610ffc57610100808354040283529160200191611027565b820191906000526020600020905b81548152906001019060200180831161100a57829003601f168201915b505094505050505060405180910390a16000803373ffffffffffffffffffffffffffffffffffffffff1673ffffffffffffffffffffffffffffffffffffffff1681526020019081526020016000206000808201600061108691906111be565b60018201600090555050600154905090565b600260009054906101000a900473ffffffffffffffffffffffffffffffffffffffff1681565b828054600181600116156101000203166002900490600052602060002090601f016020900481019282601f106110ff57805160ff191683800117855561112d565b8280016001018555821561112d579182015b8281111561112c578251825591602001919060010190611111565b5b50905061113a9190611206565b5090565b828054600181600116156101000203166002900490600052602060002090601f016020900481019282601f1061117f57805160ff19168380011785556111ad565b828001600101855582156111ad579182015b828111156111ac578251825591602001919060010190611191565b5b5090506111ba9190611206565b5090565b50805460018160011615610100020316600290046000825580601f106111e45750611203565b601f0160209004906000526020600020908101906112029190611206565b5b50565b61122891905b8082111561122457600081600090555060010161120c565b5090565b905600a165627a7a723058201b010f4c091caf737f39277719f79446bc856eb4a581f82cdd41624b8dfba3e10029",
  "source": "pragma solidity ^0.4.10;\n\ncontract SimpleIdentity{\n\n\tmapping(address => Identity) private identities;\n\tuint public numIdentities;\n\taddress public contractOwner;\n\n\t// Struct for Identity\n\tstruct Identity {\n\t\tstring name;\n\t\tuint age;\n\t}\n\n\t// Events\n\tevent LogNewIdentity(string _name, uint _age, uint numIdentities);\n\tevent LogDeletedIdentity(string _deletedName, uint _deletedAge, uint numIdentities);\n\tevent LogUpdatedIdentityName(string _updatedName, uint _age, uint numIdentities);\n\tevent LogUpdatedIdentityAge(string _name, uint _updatedAge, uint numIdentities);\n\n\t// Modifiers\n\t// Checks that age is > 0\n\tmodifier positiveAge(uint _age)\n\t{\n\t\trequire(_age > 0);\n\t\t_;\n\t}\n\t// Checks that this address doesn't have any previous identity\n\tmodifier noPreviousIdentity()\n\t{\n\t\trequire(bytes(identities[msg.sender].name).length == 0 && identities[msg.sender].age == 0);\n\t\t_;\n\t}\n\t// Checks that this address contain an identity\n\tmodifier identityExist()\n\t{\n\t\trequire(bytes(identities[msg.sender].name).length != 0 && identities[msg.sender].age != 0);\n\t\t_;\n\t}\n\n\tconstructor() \n\t\tpublic\n\t{\n\t\tcontractOwner = msg.sender;\n\t\tnumIdentities = 0;\n\t}\n\n\t// Add identity\n\tfunction addIdentity(string _name, uint _age) \n\t\tpublic \n\t\tnoPreviousIdentity() \n\t\tpositiveAge(_age)\n\t\treturns (uint)\n\t{\n\t\tnumIdentities += 1;\n\t\temit LogNewIdentity(_name, _age, numIdentities);\n\t\tidentities[msg.sender] = Identity({name: _name, age:_age});\n\t\treturn numIdentities;\n\t}\n\n\t// Remove identity\n\tfunction removeIdentity()\n\t\tpublic\n\t\tidentityExist()\n\t\treturns (uint)\n\t{\n\t\tnumIdentities -= 1;\n\t\temit LogDeletedIdentity(identities[msg.sender].name, identities[msg.sender].age, numIdentities);\n\t\tdelete identities[msg.sender];\n\t\treturn numIdentities;\n\t}\n\n\t// Update name\n\tfunction updateName(string _name)\n\t\tpublic\n\t\tidentityExist()\n\t\treturns (string, uint)\n\t{\n\t\temit LogUpdatedIdentityName(_name, identities[msg.sender].age, numIdentities);\n\t\tidentities[msg.sender].name = _name;\n\t\t// Cannot return struct unless it's used within contract so you have to return individual elements\n\t\treturn(identities[msg.sender].name, identities[msg.sender].age);\n\t}\n\n\t// Update age\n\tfunction updateAge(uint _age)\n\t\tpublic\n\t\tidentityExist()\n\t\treturns (string, uint)\n\t{\n\t\temit LogUpdatedIdentityAge(identities[msg.sender].name, _age, numIdentities);\n\t\tidentities[msg.sender].age = _age;\n\t\treturn(identities[msg.sender].name, identities[msg.sender].age);\n\t}\n\n\t// Get identity and for testing purposes!\n\tfunction getIdentity()\n\t\tpublic\n\t\tview\n\t\tidentityExist()\n\t\treturns (string, uint)\n\t{\n\t\treturn(identities[msg.sender].name, identities[msg.sender].age);\n\t}\n\n\n}",
  "sourcePath": "/Users/simon/Documents/Github/Solidity Demo/simple_identity/contracts/SimpleIdentity.sol",
  "compiler": {
    "name": "solc",
    "version": "0.4.24+commit.e67f0147.Emscripten.clang"
  },
  "schemaVersion": "2.0.1",
  "updatedAt": "2018-07-09T08:48:50.711Z"
}