{
  "contractName": "SimpleIdentity",
  "abi": [
    {
      "constant": true,
      "inputs": [],
      "name": "numIdentities",
      "outputs": [
        {
          "name": "",
          "type": "int256"
        }
      ],
      "payable": false,
      "stateMutability": "view",
      "type": "function"
    },
    {
      "constant": true,
      "inputs": [],
      "name": "contractOwner",
      "outputs": [
        {
          "name": "",
          "type": "address"
        }
      ],
      "payable": false,
      "stateMutability": "view",
      "type": "function"
    },
    {
      "inputs": [],
      "payable": false,
      "stateMutability": "nonpayable",
      "type": "constructor"
    },
    {
      "anonymous": false,
      "inputs": [
        {
          "indexed": false,
          "name": "_name",
          "type": "string"
        },
        {
          "indexed": false,
          "name": "_age",
          "type": "int256"
        },
        {
          "indexed": false,
          "name": "numIdentities",
          "type": "int256"
        }
      ],
      "name": "LogNewIdentity",
      "type": "event"
    },
    {
      "anonymous": false,
      "inputs": [
        {
          "indexed": false,
          "name": "_deletedName",
          "type": "string"
        },
        {
          "indexed": false,
          "name": "_deletedAge",
          "type": "int256"
        },
        {
          "indexed": false,
          "name": "numIdentities",
          "type": "int256"
        }
      ],
      "name": "LogDeletedIdentity",
      "type": "event"
    },
    {
      "anonymous": false,
      "inputs": [
        {
          "indexed": false,
          "name": "_updatedName",
          "type": "string"
        },
        {
          "indexed": false,
          "name": "_age",
          "type": "int256"
        },
        {
          "indexed": false,
          "name": "numIdentities",
          "type": "int256"
        }
      ],
      "name": "LogUpdatedIdentityName",
      "type": "event"
    },
    {
      "anonymous": false,
      "inputs": [
        {
          "indexed": false,
          "name": "_name",
          "type": "string"
        },
        {
          "indexed": false,
          "name": "_updatedAge",
          "type": "int256"
        },
        {
          "indexed": false,
          "name": "numIdentities",
          "type": "int256"
        }
      ],
      "name": "LogUpdatedIdentityAge",
      "type": "event"
    },
    {
      "constant": false,
      "inputs": [
        {
          "name": "_name",
          "type": "string"
        },
        {
          "name": "_age",
          "type": "int256"
        }
      ],
      "name": "addIdentity",
      "outputs": [
        {
          "name": "",
          "type": "int256"
        }
      ],
      "payable": false,
      "stateMutability": "nonpayable",
      "type": "function"
    },
    {
      "constant": false,
      "inputs": [],
      "name": "removeIdentity",
      "outputs": [
        {
          "name": "",
          "type": "int256"
        }
      ],
      "payable": false,
      "stateMutability": "nonpayable",
      "type": "function"
    },
    {
      "constant": false,
      "inputs": [
        {
          "name": "_name",
          "type": "string"
        }
      ],
      "name": "updateName",
      "outputs": [
        {
          "name": "",
          "type": "string"
        },
        {
          "name": "",
          "type": "int256"
        }
      ],
      "payable": false,
      "stateMutability": "nonpayable",
      "type": "function"
    },
    {
      "constant": false,
      "inputs": [
        {
          "name": "_age",
          "type": "int256"
        }
      ],
      "name": "updateAge",
      "outputs": [
        {
          "name": "",
          "type": "string"
        },
        {
          "name": "",
          "type": "int256"
        }
      ],
      "payable": false,
      "stateMutability": "nonpayable",
      "type": "function"
    },
    {
      "constant": true,
      "inputs": [],
      "name": "getIdentity",
      "outputs": [
        {
          "name": "",
          "type": "string"
        },
        {
          "name": "",
          "type": "int256"
        }
      ],
      "payable": false,
      "stateMutability": "view",
      "type": "function"
    }
  ],
  "bytecode": "0x608060405234801561001057600080fd5b5033600260006101000a81548173ffffffffffffffffffffffffffffffffffffffff021916908373ffffffffffffffffffffffffffffffffffffffff1602179055506000600181905550611268806100696000396000f300608060405260043610610083576000357c0100000000000000000000000000000000000000000000000000000000900463ffffffff16806319bb8b2b1461008857806336afc6fa146100b357806384da92a71461014a578063c37c596f14610233578063ce606ee01461025e578063f3f24762146102b5578063fa18134014610362575b600080fd5b34801561009457600080fd5b5061009d6103e9565b6040518082815260200191505060405180910390f35b3480156100bf57600080fd5b506100c86103ef565b6040518080602001838152602001828103825284818151815260200191508051906020019080838360005b8381101561010e5780820151818401526020810190506100f3565b50505050905090810190601f16801561013b5780820380516001836020036101000a031916815260200191505b50935050505060405180910390f35b34801561015657600080fd5b506101b1600480360381019080803590602001908201803590602001908080601f01602080910402602001604051908101604052809392919081815260200183838082843782019150505050505091929192905050506105cc565b6040518080602001838152602001828103825284818151815260200191508051906020019080838360005b838110156101f75780820151818401526020810190506101dc565b50505050905090810190601f1680156102245780820380516001836020036101000a031916815260200191505b50935050505060405180910390f35b34801561023f57600080fd5b506102486108ef565b6040518082815260200191505060405180910390f35b34801561026a57600080fd5b50610273610b60565b604051808273ffffffffffffffffffffffffffffffffffffffff1673ffffffffffffffffffffffffffffffffffffffff16815260200191505060405180910390f35b3480156102c157600080fd5b506102e060048036038101908080359060200190929190505050610b86565b6040518080602001838152602001828103825284818151815260200191508051906020019080838360005b8381101561032657808201518184015260208101905061030b565b50505050905090810190601f1680156103535780820380516001836020036101000a031916815260200191505b50935050505060405180910390f35b34801561036e57600080fd5b506103d3600480360381019080803590602001908201803590602001908080601f016020809104026020016040519081016040528093929190818152602001838380828437820191505050505050919291929080359060200190929190505050610ec6565b6040518082815260200191505060405180910390f35b60015481565b60606000806000803373ffffffffffffffffffffffffffffffffffffffff1673ffffffffffffffffffffffffffffffffffffffff1681526020019081526020016000206000018054600181600116156101000203166002900490501415801561049a575060008060003373ffffffffffffffffffffffffffffffffffffffff1673ffffffffffffffffffffffffffffffffffffffff1681526020019081526020016000206001015414155b15156104a557600080fd5b6000803373ffffffffffffffffffffffffffffffffffffffff1673ffffffffffffffffffffffffffffffffffffffff1681526020019081526020016000206000016000803373ffffffffffffffffffffffffffffffffffffffff1673ffffffffffffffffffffffffffffffffffffffff16815260200190815260200160002060010154818054600181600116156101000203166002900480601f0160208091040260200160405190810160405280929190818152602001828054600181600116156101000203166002900480156105bd5780601f10610592576101008083540402835291602001916105bd565b820191906000526020600020905b8154815290600101906020018083116105a057829003601f168201915b50505050509150915091509091565b60606000806000803373ffffffffffffffffffffffffffffffffffffffff1673ffffffffffffffffffffffffffffffffffffffff16815260200190815260200160002060000180546001816001161561010002031660029004905014158015610677575060008060003373ffffffffffffffffffffffffffffffffffffffff1673ffffffffffffffffffffffffffffffffffffffff1681526020019081526020016000206001015414155b151561068257600080fd5b7f17b29889843f0c5a67fab7b30bbba92aff3fb681bd61ca1b203ab1b982d72835836000803373ffffffffffffffffffffffffffffffffffffffff1673ffffffffffffffffffffffffffffffffffffffff168152602001908152602001600020600101546001546040518080602001848152602001838152602001828103825285818151815260200191508051906020019080838360005b8381101561073557808201518184015260208101905061071a565b50505050905090810190601f1680156107625780820380516001836020036101000a031916815260200191505b5094505050505060405180910390a1826000803373ffffffffffffffffffffffffffffffffffffffff1673ffffffffffffffffffffffffffffffffffffffff16815260200190815260200160002060000190805190602001906107c69291906110cf565b506000803373ffffffffffffffffffffffffffffffffffffffff1673ffffffffffffffffffffffffffffffffffffffff1681526020019081526020016000206000016000803373ffffffffffffffffffffffffffffffffffffffff1673ffffffffffffffffffffffffffffffffffffffff16815260200190815260200160002060010154818054600181600116156101000203166002900480601f0160208091040260200160405190810160405280929190818152602001828054600181600116156101000203166002900480156108df5780601f106108b4576101008083540402835291602001916108df565b820191906000526020600020905b8154815290600101906020018083116108c257829003601f168201915b5050505050915091509150915091565b6000806000803373ffffffffffffffffffffffffffffffffffffffff1673ffffffffffffffffffffffffffffffffffffffff16815260200190815260200160002060000180546001816001161561010002031660029004905014158015610998575060008060003373ffffffffffffffffffffffffffffffffffffffff1673ffffffffffffffffffffffffffffffffffffffff1681526020019081526020016000206001015414155b15156109a357600080fd5b600180600082825403925050819055507f2846bbe53f69757574d15d889d1de74780ada02a7bcddf50c993fff759ad7e636000803373ffffffffffffffffffffffffffffffffffffffff1673ffffffffffffffffffffffffffffffffffffffff1681526020019081526020016000206000016000803373ffffffffffffffffffffffffffffffffffffffff1673ffffffffffffffffffffffffffffffffffffffff168152602001908152602001600020600101546001546040518080602001848152602001838152602001828103825285818154600181600116156101000203166002900481526020019150805460018160011615610100020316600290048015610aef5780601f10610ac457610100808354040283529160200191610aef565b820191906000526020600020905b815481529060010190602001808311610ad257829003601f168201915b505094505050505060405180910390a16000803373ffffffffffffffffffffffffffffffffffffffff1673ffffffffffffffffffffffffffffffffffffffff16815260200190815260200160002060008082016000610b4e919061114f565b60018201600090555050600154905090565b600260009054906101000a900473ffffffffffffffffffffffffffffffffffffffff1681565b60606000806000803373ffffffffffffffffffffffffffffffffffffffff1673ffffffffffffffffffffffffffffffffffffffff16815260200190815260200160002060000180546001816001161561010002031660029004905014158015610c31575060008060003373ffffffffffffffffffffffffffffffffffffffff1673ffffffffffffffffffffffffffffffffffffffff1681526020019081526020016000206001015414155b1515610c3c57600080fd5b82600081131515610c4c57600080fd5b7f1a91fad6c8bebe1c7758e45b2f430b35a85a74b201f1e6880f0ebf74df2302506000803373ffffffffffffffffffffffffffffffffffffffff1673ffffffffffffffffffffffffffffffffffffffff168152602001908152602001600020600001856001546040518080602001848152602001838152602001828103825285818154600181600116156101000203166002900481526020019150805460018160011615610100020316600290048015610d475780601f10610d1c57610100808354040283529160200191610d47565b820191906000526020600020905b815481529060010190602001808311610d2a57829003601f168201915b505094505050505060405180910390a1836000803373ffffffffffffffffffffffffffffffffffffffff1673ffffffffffffffffffffffffffffffffffffffff168152602001908152602001600020600101819055506000803373ffffffffffffffffffffffffffffffffffffffff1673ffffffffffffffffffffffffffffffffffffffff1681526020019081526020016000206000016000803373ffffffffffffffffffffffffffffffffffffffff1673ffffffffffffffffffffffffffffffffffffffff16815260200190815260200160002060010154818054600181600116156101000203166002900480601f016020809104026020016040519081016040528092919081815260200182805460018160011615610100020316600290048015610eb55780601f10610e8a57610100808354040283529160200191610eb5565b820191906000526020600020905b815481529060010190602001808311610e9857829003601f168201915b505050505091509250925050915091565b6000806000803373ffffffffffffffffffffffffffffffffffffffff1673ffffffffffffffffffffffffffffffffffffffff168152602001908152602001600020600001805460018160011615610100020316600290049050148015610f6d575060008060003373ffffffffffffffffffffffffffffffffffffffff1673ffffffffffffffffffffffffffffffffffffffff16815260200190815260200160002060010154145b1515610f7857600080fd5b81600081131515610f8857600080fd5b600180600082825401925050819055507fd71f5e662d8e4511d945ebfe3ecb809cb3b7c514851b5b4988bb35e7e21b92b784846001546040518080602001848152602001838152602001828103825285818151815260200191508051906020019080838360005b8381101561100a578082015181840152602081019050610fef565b50505050905090810190601f1680156110375780820380516001836020036101000a031916815260200191505b5094505050505060405180910390a16040805190810160405280858152602001848152506000803373ffffffffffffffffffffffffffffffffffffffff1673ffffffffffffffffffffffffffffffffffffffff16815260200190815260200160002060008201518160000190805190602001906110b5929190611197565b506020820151816001015590505060015491505092915050565b828054600181600116156101000203166002900490600052602060002090601f016020900481019282601f1061111057805160ff191683800117855561113e565b8280016001018555821561113e579182015b8281111561113d578251825591602001919060010190611122565b5b50905061114b9190611217565b5090565b50805460018160011615610100020316600290046000825580601f106111755750611194565b601f0160209004906000526020600020908101906111939190611217565b5b50565b828054600181600116156101000203166002900490600052602060002090601f016020900481019282601f106111d857805160ff1916838001178555611206565b82800160010185558215611206579182015b828111156112055782518255916020019190600101906111ea565b5b5090506112139190611217565b5090565b61123991905b8082111561123557600081600090555060010161121d565b5090565b905600a165627a7a72305820c9a870dffce3623dc5e36f0aff2919282eeb86ca1b66a57b37457b982a781a900029",
  "source": "pragma solidity ^0.4.10;\n\ncontract SimpleIdentity{\n\n\tmapping(address => Identity) private identities;\n\tint public numIdentities;\n\taddress public contractOwner;\n\n\t// Struct for Identity\n\tstruct Identity {\n\t\tstring name;\n\t\tint age;\n\t}\n\n\t// Events\n\tevent LogNewIdentity(string _name, int _age, int numIdentities);\n\tevent LogDeletedIdentity(string _deletedName, int _deletedAge, int numIdentities);\n\tevent LogUpdatedIdentityName(string _updatedName, int _age, int numIdentities);\n\tevent LogUpdatedIdentityAge(string _name, int _updatedAge, int numIdentities);\n\n\t// Modifiers\n\t// Checks that age is > 0\n\t// This check is useless if your parameter is of type uint because when a negative value is casted to a uint, you get a very large int number\n\t// This require statement can never fail. \n\t// The solution to this is to use int instead of uint. \n\t// By default, int is int256\n\tmodifier positiveAge(int _age)\n\t{\n\t\trequire(_age > 0);\n\t\t_;\n\t}\n\t// Checks that this address doesn't have any previous identity\n\tmodifier noPreviousIdentity()\n\t{\n\t\trequire(bytes(identities[msg.sender].name).length == 0 && identities[msg.sender].age == 0);\n\t\t_;\n\t}\n\t// Checks that this address contain an identity\n\tmodifier identityExist()\n\t{\n\t\trequire(bytes(identities[msg.sender].name).length != 0 && identities[msg.sender].age != 0);\n\t\t_;\n\t}\n\n\tconstructor() \n\t\tpublic\n\t{\n\t\tcontractOwner = msg.sender;\n\t\tnumIdentities = 0;\n\t}\n\n\t// Add identity\n\tfunction addIdentity(string _name, int _age) \n\t\tpublic \n\t\tnoPreviousIdentity() \n\t\tpositiveAge(_age)\n\t\treturns (int)\n\t{\n\t\tnumIdentities += 1;\n\t\temit LogNewIdentity(_name, _age, numIdentities);\n\t\tidentities[msg.sender] = Identity({name: _name, age:_age});\n\t\treturn numIdentities;\n\t}\n\n\t// Remove identity\n\tfunction removeIdentity()\n\t\tpublic\n\t\tidentityExist()\n\t\treturns (int)\n\t{\n\t\tnumIdentities -= 1;\n\t\temit LogDeletedIdentity(identities[msg.sender].name, identities[msg.sender].age, numIdentities);\n\t\tdelete identities[msg.sender];\n\t\treturn numIdentities;\n\t}\n\n\t// Update name\n\tfunction updateName(string _name)\n\t\tpublic\n\t\tidentityExist()\n\t\treturns (string, int)\n\t{\n\t\temit LogUpdatedIdentityName(_name, identities[msg.sender].age, numIdentities);\n\t\tidentities[msg.sender].name = _name;\n\t\t// Cannot return struct unless it's used within contract so you have to return individual elements\n\t\treturn(identities[msg.sender].name, identities[msg.sender].age);\n\t}\n\n\t// Update age\n\tfunction updateAge(int _age)\n\t\tpublic\n\t\tidentityExist()\n\t\tpositiveAge(_age)\n\t\treturns (string, int)\n\t{\n\t\temit LogUpdatedIdentityAge(identities[msg.sender].name, _age, numIdentities);\n\t\tidentities[msg.sender].age = _age;\n\t\treturn(identities[msg.sender].name, identities[msg.sender].age);\n\t}\n\n\t// Get identity and for testing purposes!\n\tfunction getIdentity()\n\t\tpublic\n\t\tview\n\t\tidentityExist()\n\t\treturns (string, int)\n\t{\n\t\treturn(identities[msg.sender].name, identities[msg.sender].age);\n\t}\n\n\n}",
  "sourcePath": "/home/simon/Documents/Github/Solidity-Demo/simple_identity/contracts/SimpleIdentity.sol",
  "compiler": {
    "name": "solc",
    "version": "0.4.24+commit.e67f0147.Emscripten.clang"
  },
  "schemaVersion": "2.0.1",
  "updatedAt": "2018-07-11T05:16:06.573Z"
}